:020000040800F2
:10000000F041002069020008CB1000082F10000802
:10001000C9100008C5030008FD1300080000000017
:10002000000000000000000000000000A90100081E
:10003000C70300080000000005020008DD100008EA
:10004000830200088302000883020008830200087C
:10005000830200088302000883020008830200086C
:10006000830200088302000883020008830200085C
:10007000830200088302000883020008830200084C
:1000800083020008830200088302000800000000C9
:1000900000000000000000000000000083020008D3
:1000A00083020008AD1100088302000883020008E3
:1000B000830200088302000883020008830200080C
:1000C00083020008830200088302000883020008FC
:1000D0008302000883020008830200080000000079
:1000E000C903000883020008830200080000000022
:1000F0000000000000000000000000008302000873
:100100000000000083020008830200088302000848
:1001100000000000000000000000000000000000DF
:10012000830200088302000883020008830200089B
:100130008302000800000000000000000000000032
:100140000000000000000000000000008302000822
:10015000830200088302000883020008830200086B
:100160008302000883020008000000000000000075
:10017000000000000000000000000000000000007F
:1001800000000000830200080000000000000000E2
:1001900083020008DFF80CD000F002F900480047A5
:1001A000CD150008F04100202C4B19680868B0E814
:1001B000F04F80F30988BFF36F8F4FF0000080F39A
:1001C000118870470000000008480068006880F34C
:1001D00008884FF0000080F3148862B661B6BFF360
:1001E0004F8FBFF36F8F00DF00BF00BF08ED00E04F
:1001F000DFF80C00016841F470010160704700BF36
:1002000088ED00E0EFF30980BFF36F8F134B1A689E
:100210001EF0100F08BF20ED108A20E9F04F10608B
:1002200009B44FF0500080F31188BFF34F8FBFF334
:100230006F8F01F065FD4FF0000080F3118809BC5D
:1002400019680868B0E8F04F1EF0100F08BFB0EC56
:10025000108A80F30988BFF36F8F70471C0000205D
:10026000EFF30580704700000648804706480047C6
:10027000FEE7FEE7FEE7FEE7FEE7FEE7FEE7FEE756
:10028000FEE7FEE791110008950100082DE9F05FF7
:100290000546002092469B468846064681464024F5
:1002A0001BE0284641464746224600F069F853467F
:1002B0005A46C01A914110D311461846224600F002
:1002C00050F82D1A67EB01084F4622460120002105
:1002D00000F047F817EB00094E41201EA4F101047D
:1002E000DFDC484631462A464346BDE8F09F40EAF7
:1002F00001039B0703D009E008C9121F08C0042AA4
:10030000FAD203E011F8013B00F8013B521EF9D28A
:100310007047D2B201E000F8012B491EFBD27047B2
:100320000022F6E710B513460A4604461946FFF7C1
:10033000F0FF204610BD30B50B46014600202022BC
:10034000012409E021FA02F59D4205D303FA02F5E2
:10035000491B04FA02F52844151EA2F10102F1DC42
:1003600030BD202A04DB203A00FA02F10020704759
:100370009140C2F1200320FA03F3194390407047E3
:10038000202A04DB203A21FA02F00021704721FAEA
:1003900002F3D040C2F12002914008431946704751
:1003A000064C074D06E0E06840F0010394E80700C2
:1003B00098471034AC42F6D3FFF7F0FE2020000837
:1003C00040200008FEE7704770B50A4C20684FF4E3
:1003D0000055800408D501222021074800F0F8F8D4
:1003E0002846256000F01CF82846BDE8704000F063
:1003F00019B80000143C01400000024070B50446EA
:1004000000F0ECF80546601C02D004480078044473
:1004100000F0E4F8401BA042FAD370BD0C000020AD
:1004200070470000044910B50A68024202D0086013
:10043000FFF7F6FF10BD0000143C01402DE9F84F16
:1004400000224FF0010803254FF00F0E0B6808FA49
:1004500002F42340A34271D14E68012E05D0022E32
:1004600003D0112E01D0122E15D18668570005FA3F
:1004700007FC26EA0C06D1F80CC00CFA07FC4CEA83
:10048000060CC0F808C04668A6430C79C4F30014F3
:10049000944034434460C668570005FA07FC8C68F2
:1004A00026EA0C06BC403443C4604C68022C01D0E0
:1004B000122C13D1D40800EB8404A346D4F8209066
:1004C00054074FEAD46A0EFA0AF629EA06090E69B9
:1004D00006FA0AF646EA0906CBF8206004680E79A7
:1004E00024EA0C0406F00306BE40264306604C686E
:1004F000E40056D52E4C266846F4804626602468D3
:1005000022F0030604F4804400942A4C3444A446A8
:10051000D4F808489607370F0EFA07F6B443264E6C
:10052000B04201D1002615E0244EB04201D101268F
:1005300010E0234EB04202D102260BE031E0214E02
:10054000B04201D1032605E01F4EB04201D104267E
:1005500000E00726BE402643CCF808681B4E3468EE
:100560004F689C43FF0300D51C433460174E361D73
:1005700034684F689C43BF0300D51C433460134E5E
:10058000083634684F689C43FF0200D51C43346032
:100590000E4E0C3634684F689C43BF0200D51C4396
:1005A0003460521C102AFFF451AFBDE8F88F0000F0
:1005B0004438024000300140000002400004024084
:1005C00000080240000C024000100240003C0140C4
:1005D0000AB1816170470904FBE7000001488068A7
:1005E000704700000C000020024881680278114426
:1005F000816070470C0000200B4810B5016841F481
:1006000000710160016841F480610160016841F49A
:1006100080710160032000F08DF8002000F006F8E2
:1006200000F03EF8002010BD003C024010B501462D
:1006300088B00022192000F05DF8192000F04CF875
:1006400013480024016841F001010160006805A918
:1006500000F001000690684600F018F900F046F935
:100660000C490D4AB0FBF1F10C48491E026040F202
:10067000E732C0E90324C0E9011400F027FB10B100
:10068000012008B010BD054800F03CFBF9E7000070
:100690004438024040420F0000000140C0000020EA
:1006A0000C4882B0016841F480410160006800F4A8
:1006B000804000900748001F016841F080510160B0
:1006C0000068002200F0805000900F21901E02B0C0
:1006D00000F010B844380240002809DB00F01F0287
:1006E000012191404009800000F1E020C0F8001194
:1006F00070470000F0B40E4B1B680C46C3F3022396
:10070000C3F10705042D00D90425191D072901D2BD
:10071000002300E0DB1E012606FA05F1491E2140F8
:1007200099409E40761E16403143F0BC00F078BEE2
:100730000CED00E0064900F0070208684FF6FF03E1
:10074000184040EA0220034A104308607047000046
:100750000CED00E00000FA052DE9F0470E4605001B
:1007600065D0DFF81481D8F80000F7B200F00F0070
:10077000B04207D288F80070D8F8000000F00F00EF
:10078000B04254D128683D4C810712D5400703D5AB
:10079000206840F4E05020602878000703D52068E6
:1007A00040F4604020602068A96820F0F000084311
:1007B00020602878C0072DD03049686808390128A2
:1007C00012D0022813D0032811D009688907002904
:1007D0002DDA216821F0030101432160FFF7FEFEBD
:1007E000814641F2883A0EE009688903EFE709681B
:1007F0008901ECE7FFF7F2FEA0EB0901514502D9B0
:100800000320BDE8F0872068696800F00C00B0EBB9
:10081000810FEFD1D8F80010404601F00F01B1422E
:1008200007D90770006800F00F00B04201D0012026
:10083000E7E72878400705D52068E96820F4E0500C
:10084000084320602878000706D52068296920F42D
:10085000604040EAC100206000F058F82168084A72
:10086000C1F30311515CC84006490860064800689E
:10087000FFF7DCFE0020C4E7003C024008380240DD
:10088000EC1F000818000020100000200F2202605A
:100890000C4A136803F003034360136803F0F0038A
:1008A0008360136803F4E053C36012684FF4E053AD
:1008B00003EAD20202610448006800F00F000860F9
:1008C0007047000008380240003C024004480549D7
:1008D00000680968044AC1F38221515CC84070472E
:1008E0001800002008380240FC1F00080448054991
:1008F00000680968044AC1F34231515CC84070473E
:100900001800002008380240FC1F0008154810B5E8
:10091000006810F00C02144813D04110042A0FD0C4
:10092000082A0ED10F4C241F2268236802F03F02D0
:100930005B0207D52068C0F38810A0FB010106E028
:10094000084610BD2168C1F38811A1FB00010023F6
:10095000FFF79CFC2168C1F30141491C4900B0FB31
:10096000F1F010BD083802400024F4002DE9F84FE2
:10097000040076D02078DFF838A3CE4DC00749D0E8
:10098000DAF800105046C1F38101012908D000684F
:10099000C0F3810002280AD1281D0068400206D554
:1009A0002868800336D560680028E2D032E06068AD
:1009B000B0F5803F10D0B0F5A02F286810D020F4FB
:1009C00080302860286820F4802028606068A0B10A
:1009D000FFF704FE06460CE0286840F48030F4E798
:1009E00040F480202860F7E7FFF7F8FD801B6428BB
:1009F00073D828688003F7D50CE0FFF7EFFD0646B3
:100A000005E000BFFFF7EAFD801B6428F0D82868E6
:100A10008003F7D42078DFF8A08280074FF0000928
:100A20003ED5DAF80010504611F00C0F09D00068DE
:100A3000C0F3810002280BD19D48001F00684002CE
:100A400006D42868800715D5E068012809D111E08F
:100A5000E068B8B10120C8F80000FFF7BFFD064606
:100A600005E020E1FFF7BAFD801B0228C0D8286806
:100A70008007F7D52868216920F0F80040EAC10016
:100A800028600DE0C8F80090FFF7A8FD064604E0D6
:100A9000FFF7A4FD801B02281FD828688007F7D421
:100AA0002078000722D5824E844861696C3671B186
:100AB00001210160FFF792FD074604E0FFF78EFD7C
:100AC000C01B022809D830688007F7D50EE0C0F8AF
:100AD0000090FFF783FD074605E082E0FFF77EFD0B
:100AE000C01B02287DD830688007F7D420784007E3
:100AF00068D5DFF8BCB100270BF1380BDBF800003C
:100B0000C0000BD4DBF8001041F08051CBF800108E
:100B1000DBF80000012700F080500090684E30683C
:100B2000C00510D4306840F480703060FFF756FD87
:100B3000009005E0FFF752FD0099401A022850D8B6
:100B40003068C005F6D55A4EA068683601280FD027
:100B50000528306810D020F001003060306820F0A7
:100B600004003060A068B8B1FFF738FD00900FE0D6
:100B7000306840F00100F4E740F004003060F7E72F
:100B8000FFF72CFD0099411A41F28830814266D866
:100B900030688007F4D50EE0FFF720FD009007E0F5
:100BA000FFF71CFD0099411A41F28830814256D866
:100BB00030688007F4D42FB1DBF8001021F08051A9
:100BC000CBF80010A069D0B3DAF800205146C2F388
:100BD0008102022A4AD00228484607D0C8F860009D
:100BE00000E03CE0FFF7FAFC04463BE04746C8F86B
:100BF0006000FFF7F3FC064605E000BFFFF7EEFCE0
:100C0000801B02282BD828688001F7D4D4E907017B
:100C10000843A16A2B4A490802EB0141626A41EA92
:100C20008211084394F82C1040EA01612048001F0B
:100C3000016001203866FFF7D1FC044605E034E08E
:100C4000FFF7CCFC001B022809D828688001F7D5E3
:100C50002BE000BFFFF7C2FC001B022802D90320D3
:100C6000BDE8F88F28688001F4D41EE00128F7D091
:100C70000868E26900F48001914214D1226A00F010
:100C80003F0191420FD147F6C071626A0140914223
:100C900009D1A26A00F44031914204D1E16A00F026
:100CA0007060884201D00120DAE70020D8E7000018
:100CB000083802400038024000004742800E474298
:100CC000007000400000FFFF7047704710B504003F
:100CD00003D094F83D0010B107E0012010BD0020C2
:100CE00084F83C00204600F00CF8022084F83D0017
:100CF000211D206800F060FA012084F83D000020EA
:100D000010BD70470168CA6842F00102CA600068FD
:100D1000816801F00701062903D0016841F0010153
:100D2000016000207047704770B504460068016993
:100D30004FF00005C943890715D4C168C943890725
:100D400011D4E91E016101202077206880698007A5
:100D5000204602D0FFF7E7FF04E000F098F82046B5
:100D600000F096F8257720680169C943490717D430
:100D7000C168C943490713D46FF00401016102201F
:100D800020772068806910F4407F204602D0FFF76A
:100D9000CAFF04E000F07BF8204600F079F82577E0
:100DA00020680169C943090716D4C168C943090706
:100DB00012D46FF008010161042020772068C06917
:100DC0008007204602D0FFF7AEFF04E000F05FF896
:100DD000204600F05DF8257720680169C943C906FF
:100DE00017D4C168C943C90613D46FF0100101615B
:100DF000082020772068C06910F4407F204602D088
:100E0000FFF791FF04E000F042F8204600F040F8C0
:100E1000257720680169C943C90708D1C168C9435A
:100E2000C90704D1891E0161204600F033F820680B
:100E30000169C943090609D4C168C943090605D433
:100E40006FF0800101612046FFF73EFF20680169D5
:100E5000C943490609D4C168C943490605D46FF09E
:100E600040010161204600F01FF820680169C94374
:100E700089060BD4C168C943890607D46FF02001E5
:100E800001612046BDE87040FFF71FBF70BD70478D
:100E90007047000000680349884201D1FFF7A4BBF6
:100EA0007047000000000140704770B5040004D096
:100EB00094F83900002510B106E0012070BD84F8D7
:100EC0003850204600F022F8242084F839002068A9
:100ED000C16821F40051C160204600F0C9F92068C2
:100EE000016921F4904101612068416921F02A01E2
:100EF00041612068C16841F40051C160E563202070
:100F000084F8390084F83A00002070BD10B586B02E
:100F1000044614216846FFF703FA13492068884203
:100F200020D11248016841F400310160006800F4EA
:100F3000003005900D481038016841F00101016052
:100F40000068694600F0010005900C200090022026
:100F50000190012002900320039007200490044890
:100F6000FFF76CFA06B010BD004400404038024064
:100F7000000002402DE9F843044690F839001F466E
:100F800016460D46202850D1B5B1AEB194F83800C0
:100F900001284AD0012084F838004FF00008C4F836
:100FA0003C80212084F83900FFF718FBA684814695
:100FB000E68484F8388026E00120BDE8F883E08CE0
:100FC000401EE084A0684B46B0F5805F4FF0000201
:100FD0004FF080012046009703D000F0DDF9E8B91A
:100FE0000DE000F0D9F9C8B928882168C0F30800DD
:100FF0004860206908B16D1C05E0AD1C03E0216864
:1010000015F8010B4860E08C0028D8D14B4600222F
:1010100040212046009700F0BFF908B10320CCE73B
:10102000202084F839000020C7E70220C5E7FEE74A
:1010300030B587B014216846FFF772F91E480024C6
:10104000016841F004010160016801F004010591AB
:10105000016841F080010160016801F080010591A3
:10106000016841F0010101600068144D00F00100C9
:101070000590002220212846FFF7AAFA4FF40050DD
:1010800000900F48CDE9010469460E48FFF7D6F9F4
:10109000202000900120CDE90104694628460394F0
:1010A000FFF7CCF9002205212820FFF723FB282099
:1010B000FFF712FB07B030BD30380240000002409D
:1010C0000000111000080240FEE770474FF47A74E8
:1010D00000F0E8FC204600F0D9FAF9E710B55020FE
:1010E00080F31188BFF34F8FBFF36F8F00F08EFE38
:1010F00018B104494FF080500860002080F3118837
:1011000010BD000004ED00E030B593B0302168461A
:10111000FFF706F914210CA8FFF702F91A4800247A
:10112000016841F080510160006800F0805011902A
:101130001648016821F4404141F400410160006813
:10114000022500F4404011900120039010200095EA
:1011500006950490CDE907404FF4A870099004204B
:101160000A9007200B906846FFF700FC0F20CDE99E
:101170000C05E802CDE90E4002210CA81094FFF7FF
:10118000EBFA13B030BD0000403802400070004060
:101190000548016841F47001016003494FF00060A7
:1011A000803908607047000088ED00E00148FFF7D3
:1011B000BBBD0000C0000020F0B502681D4B1E4CF6
:1011C0009F031E4D1E4E984207D0B84205D0A04244
:1011D00003D0A84201D0B04204D122F0700C4A687A
:1011E00042EA0C02984210D0B8420ED0A0420CD075
:1011F000A8420AD0B04208D0124CA04205D0124CEE
:10120000A04202D0114CA04203D122F44074CA681B
:1012100022434C6922F08002224302608A68C26243
:101220000A688262984201D1096901630121416122
:10123000F0BD000000000140000400400008004034
:10124000000C0040004001400044014000480140C3
:101250004FF47A7400F046FC204600F017FAF9E7E4
:101260004FF47A7400F05AFC204600F00FFAF9E7C8
:101270002DE9F041044600680169E26821F440511B
:10128000114301612169A068E26908436169114362
:1012900008432168CA6849F20C639A430243CA6052
:1012A00020684169A26921F4407111434161E069FC
:1012B000192764253226B0F5004F354A3549206894
:1012C0004FF0000806D0884201D0904236D1FFF797
:1012D0000DFB35E0884201D0904202D1FFF706FBBA
:1012E00001E0FFF7F3FA61684A18A0FB070148EB39
:1012F0000803FEF7CBFF0146B0FBF5F00201B1FB9E
:10130000F5F06FF01803584301EB800006EBC000C6
:10131000B0FBF5F000F0F80002EB4002B1FBF5F095
:10132000584301EB800006EBC000B0FBF5F000F085
:101330000700216810448860BDE8F081FFF7C6FA15
:1013400061688B0F8A00A0FB0701FEF79FFF014633
:10135000B0FBF5F06FF01802504301EB800006EB94
:101360000010B0FBF5F000F0F002B1FBF5F002EB7D
:101370000012B1FBF5F06FF01803584301EB800049
:1013800006EB0010B0FBF5F000F00F00D1E7000015
:1013900000140140001001402DE9F0419846174625
:1013A0000E460446069D1DE0681C1BD02DB1FFF7BC
:1013B00015F9A0EB0800A84214D92068C16821F4EF
:1013C000D071C1602068416921F001014161202094
:1013D00084F8390084F83A00002084F838000320AB
:1013E000BDE8F0812068006836EA000004D00020E3
:1013F000B842D9D00020F3E70120F9E7FEE700006A
:101400000FB4054B10B503A9044A029800F028F860
:1014100010BC5DF814FB0000B51500087C0000202E
:101420000907090E002804DB00F1E02080F8001411
:10143000704700F00F0000F1E02080F8141D7047A5
:1014400002E008C8121F08C1002AFAD1704770478D
:10145000002001E001C1121F002AFBD170470000EB
:101460002DE9FF4F89B09B460446002506E025285C
:101470000BD05A460B999047641C6D1C20780028AD
:10148000F5D10DB02846BDE8F08F0027B8460122FF
:10149000474900E0074314F8013F203B02FA03F0FC
:1014A0000842F7D120782E2819D114F8010F47F0FF
:1014B00004072A280ED06FF02F022078A0F1300107
:1014C00009290CD808EB880102EB410100EB010867
:1014D000641CF2E70A98641C50F8048B0A90207888
:1014E0000028CED0642808D0692806D075281ED0E0
:1014F0005A460B9990476D1C58E00A994FF00A091B
:1015000001C90A91002802DA40422D2102E0390582
:1015100004D52B218DF82010012103E0F90704D018
:101520002021F7E78A4608AE0DE00021FAE70A9984
:101530004FF00A0901C90A91F7E74946FEF7FBFE99
:10154000303106F8011D0028F7D1ADEB060000F19F
:101550002009780701D44FF00108C84502DDA8EB47
:10156000090000E000208046002706E008A85A464F
:10157000C05D0B9990476D1C7F1C5745F6DB04E05E
:1015800030205A460B9990476D1CB8F10001A8F124
:101590000108F5DC05E016F8010B5A460B99904757
:1015A0006D1CB9F10001A9F10109F4DC641C65E7C7
:1015B0000928010013B54FF6FF730122694602485E
:1015C000FFF7D8FC00981CBD8000002096B0FFF704
:1015D00013F80024FFF798FDFFF72AFD20481F4964
:1015E000002201604FF4E131C0E901120C21C26018
:1015F000C0E904218261C261FFF757FC1C2219492E
:101600006846FEF774FE0021684600F046F8164D65
:1016100014491C2228601C3107A8FEF768FE00212F
:1016200007A800F03AF80F4968601C2238310EA86C
:10163000FEF75DFE00210EA800F02FF8A8604FF421
:101640007A750AA0FFF7DCFE21460CA0FFF7D8FE52
:101650002846641CFEF7D2FEF3E700000044004079
:1016600080000020981F00080000002048656C6C76
:101670006F20576F726C64200000000025640A0020
:1016800001460020842900D0C81C704710B500B95D
:10169000012000F007FB002010BD7FB50D46044679
:1016A0004169B0F9080081B1A16971B1FFF7E8FFA4
:1016B000D4E905128DE80700D4E900102B46226911
:1016C00000F079FB039004B070BDFFF7D9FF03A9C8
:1016D000CDE90001208A2B4682B2D4E9001000F047
:1016E0003DFB012801D00020EDE70398EBE7000067
:1016F0002DE9F041184C0F46054666692068001D2B
:1017000000F028FA38B9206890F82C1001208840A1
:10171000A1698143A161681C07D137B12168BDE887
:10172000F0410E48091D00F04EBA20683544B5421C
:101730004560216805D2A068BDE8F041091D00F0B0
:101740002ABA6068091D00F026FA206B854200D293
:101750002563BDE8F08100001C000020DC010020B2
:101760002DE9F041054600F03BFA2E4C2069401C63
:10177000206120682C4F10B1E06940B32DE0256056
:101780002069012829D1002606EB860007EB80009E
:1017900000F0F3F9761C072EF6D323488C3000F0C6
:1017A000ECF92148A03000F0E8F91F48B43000F00F
:1017B000E4F91D48C83000F0E0F91B48DC3000F0C7
:1017C000DCF919488C3060601430A06005E02068B6
:1017D000E96AC06A884200D82560E06A401CE0627D
:1017E000E96A0120A26988401043A06101EB8100F1
:1017F00007EB8000291D00F0E6F900F011FAE0691E
:1018000000280CD02068E96AC06A884207D20749DC
:101810004FF080500860BFF34F8FBFF36F8FBDE86C
:10182000F08100001C0000200001002004ED00E019
:1018300010484FF47051420706D0C01D0D4920F0EA
:101840000700411AC1F570510B4A00230144C2E957
:1018500000030839103A21F0070111604B600B605A
:101860000B1AC0E9001393604FF000405360D06042
:1018700070470000F0010020680000202DE9F047CB
:101880009A46DDE9098481466FF00303206B03EB80
:1018900082021044089D20F00706700707D05020F0
:1018A00080F31188BFF34F8FBFF36F8FFEE72318CC
:1018B0000A5C83F834200A5C12B1401C1028F6D36D
:1018C000002784F84370072D00D30625E562C4E99C
:1018D0001157201D00F05CF904F1180000F058F9D0
:1018E0002461C5F107006462A061E76484F8507068
:1018F00052464946304600F0BFF82060B8F1000F6C
:1019000001D0C8F80040BDE8F087000030B51149AB
:1019100000E011460A688242FBD34B685C1884429F
:1019200003D1406818444860084643681C18944234
:1019300009D1084C103C2468A24209D052681A44CC
:1019400042600A6812680260814200D0086030BDBF
:101950000460F9E76800002006484168096829B179
:101960004168C968C9684968016370474FF0FF3131
:10197000FAE700001C00002008484068401C4FF0B7
:10198000500080F3118804D0BFF34F8FBFF36F8FE7
:10199000FEE7BFF34F8FBFF36F8FFEE770000020AD
:1019A0002DE9F0410546002700F0A2F9314E3068DC
:1019B00008B9FFF73DFFF06805424BD1C5B30835C4
:1019C00068070ED005F00700C0F10800054468075D
:1019D00007D0502080F31188BFF34F8FBFF36F8F74
:1019E000FEE72DB37068854234D822481030014696
:1019F0000C6801E020460C466168A94202D22168C9
:101A00000029F7D131688C4224D007682168016031
:101A100060680837411B10290FD96019420708D0A8
:101A2000502080F31188BFF34F8FBFF36F8FFEE715
:101A300010E041606560FFF769FF61687068401AF7
:101A40007060B268904200D2B060F068014300203C
:101A5000C4E9000100F03EFA780707D0502080F377
:101A60001188BFF34F8FBFF36F8FFEE73846BDE895
:101A7000F08100005800002010B5031F4FF0807463
:101A80001C601B1F21F001011960191F044B0B6022
:101A900014390A60091F6FF0020244380A6010BD51
:101AA0007919000800B587B01C2206A16846FEF728
:101AB0001EFC4FF4FA73192269460948FFF75AFAD7
:101AC00007B000BD48656C6C6F2066726F6D206456
:101AD000656661756C74207461736B0A00000000A8
:101AE0008000002000B585B0142206A16846FEF7EC
:101AF000FEFB4FF4FA73132269460748FFF73AFAE0
:101B000005B000BD48656C6C6F2066726F6D207407
:101B100061736B20320A00008000002000B585B0A0
:101B2000142206A16846FEF7E2FB4FF4FA73132273
:101B300069460748FFF71EFA05B000BD48656C6CA2
:101B40006F2066726F6D207461736B20330A000022
:101B500080000020D0E9013201699A60D0E90123B8
:101B60005A604A68824201D182684A60002202615A
:101B70000868401E08600868704700F108014FF0CF
:101B8000FF32C0E90112C1600161002101607047AC
:101B900000210161704730B50B685A1C02D000F17A
:101BA000080202E0026904E02246546825689D426A
:101BB000FAD953684B6099608A6051600861016886
:101BC000491C016030BD42684A6093688B6093682D
:101BD0005960916008610168491C0160704700000C
:101BE000502080F31188BFF34F8FBFF36F8F0A49E6
:101BF0004868401C486001280CD10848006810F073
:101C0000FF0F07D0502080F31188BFF34F8FBFF331
:101C10006F8FFEE7704700007000002004ED00E0C9
:101C20000849486828B1401E486001D180F31188F6
:101C30007047502080F31188BFF34F8FBFF36F8F31
:101C4000FEE700007000002070B5002827D0144D7A
:101C5000A0F108046168E868014207D1502080F3D0
:101C60001188BFF34F8FBFF36F8FFEE722683AB141
:101C7000502080F31188BFF34F8FBFF36F8FFEE7C3
:101C80008143616000F034F8606869680844686006
:101C90002046FFF73BFEBDE8704000F01BB970BD69
:101CA0005800002010B5020014D00F48806B38B1E6
:101CB000502080F31188BFF34F8FBFF36F8FFEE783
:101CC00000F016F800211046FFF712FD00F002F9AF
:101CD000002807D105494FF080500860BFF34F8FAF
:101CE000BFF36F8F10BD00001C00002004ED00E06A
:101CF0000248816B491C8163704700001C00002072
:101D00001448816B11B10121416270470021416289
:101D10008169B1FA81F1C1F11F0101EB81020E4924
:101D200051F822306BB101EB820101F108034A68DE
:101D300052684A609A4201D152684A60D168016093
:101D40007047502080F31188BFF34F8FBFF36F8F20
:101D5000FEE700001C000020000100202DE9FF5FCD
:101D60008346DDE90E87994616468A469000FFF7BE
:101D700017FE05001CD05420FFF712FE040014D0FB
:101D80000020256384F85100CDE90240CDE90087A9
:101D90004B46324651465846FFF770FD2046FFF746
:101DA000DFFC012004B0BDE8F09F2846FFF74CFFA0
:101DB0004FF0FF30F6E7F0B585B0DDE90B640A9D22
:101DC000A6B1DCB1542700972663022684F851603F
:101DD000002604AFCDE90246CDE90057FFF74EFDDE
:101DE0002046FFF7BDFC049805B0F0BD502080F3FD
:101DF0001188BFF34F8FBFF36F8FFEE7502080F342
:101E00001188BFF34F8FBFF36F8FFEE72DE9F041CD
:101E10002E4C0027A06B40B1206A401C2062606AF3
:101E200000B101273846BDE8F0816669761C66611D
:101E300013D16068006838B1502080F31188BFF377
:101E40004F8FBFF36F8FFEE76068A1686160A0608D
:101E5000A06A401CA062FFF77FFD206BDFF8708056
:101E6000864209D36068006880B16068C068C56850
:101E7000686886420DD220632068C06A00EB80014A
:101E800058F821000128CAD90127C8E74FF0FF30D0
:101E9000F1E7281DFFF75EFEA86A18B105F11800EA
:101EA000FFF758FEE86A0121A26981401143A16150
:101EB00000EB800108EB8100291DFFF784FEE86A32
:101EC0002168C96A8842CDD30127CBE71C000020D6
:101ED000000100202DE9F0472C4D00242746A86B77
:101EE00038B1FFF77DFEA86B401EA863A86B40B118
:101EF00046E0502080F31188BFF34F8FBFF36F8F00
:101F0000FEE72969224E0120D1B3A6F1B40980462B
:101F10003068E8B1F068C46804F11800FFF71AFEF1
:101F2000201DFFF717FEE06AAA6908FA00F11143C5
:101F3000A96100EB800109EB8100211DFFF743FE41
:101F4000E06A2968C96A8842E2D3C5F82480DFE7DD
:101F50000CB1FFF701FD2C6A44B14646FFF756FF6E
:101F600000B16E62641EF9D100202862686A38B13F
:101F70000849012738070860BFF34F8FBFF36F8F01
:101F8000FFF74EFE3846BDE8F08700001C00002039
:101F9000B401002004ED00E014200008CD1000087A
:101FA00001000000000000008000000000000000B0
:101FB000000000000420000851120008000000008A
:101FC0000000000080000000000000000000000091
:101FD0000C20000861120008FFFF00000000000054
:101FE0008000000000000000000000000000000071
:101FF00000000000010203040607080900000000B9
:10200000010203045461736B303200005461736B3E
:102010003033000064656661756C745461736B00E5
:10202000402000080000002080000000401400084C
:10203000C0200008800000207041000050140008FB
:10204000000000000000000000000000010000008F
:1020500010000000000000000024F4000000000058
:102060000000000000000000000000000000000070
:102070000000000000000000000000000000000060
:102080000000000000000000000000000000000050
:102090000000000000000000000000000000000040
:1020A0000000000000000000000000000000000030
:1020B00000000000AAAAAAAA000000000000000078
:040000050800019559
:00000001FF
